{
  "_format": "hh-sol-artifact-1",
  "contractName": "RevenueShareVault",
  "sourceName": "contracts/staking/RevenueShareVault.sol",
  "abi": [
    {
      "inputs": [
        {
          "internalType": "contract IERC20",
          "name": "_underlying",
          "type": "address"
        },
        {
          "internalType": "contract IERC20",
          "name": "_revenueToken",
          "type": "address"
        },
        {
          "internalType": "string",
          "name": "_name",
          "type": "string"
        },
        {
          "internalType": "string",
          "name": "_symbol",
          "type": "string"
        },
        {
          "internalType": "contract ISwapRouter",
          "name": "_swapRouter",
          "type": "address"
        }
      ],
      "stateMutability": "nonpayable",
      "type": "constructor"
    },
    {
      "anonymous": false,
      "inputs": [
        {
          "indexed": true,
          "internalType": "address",
          "name": "owner",
          "type": "address"
        },
        {
          "indexed": true,
          "internalType": "address",
          "name": "spender",
          "type": "address"
        },
        {
          "indexed": false,
          "internalType": "uint256",
          "name": "value",
          "type": "uint256"
        }
      ],
      "name": "Approval",
      "type": "event"
    },
    {
      "anonymous": false,
      "inputs": [
        {
          "indexed": true,
          "internalType": "address",
          "name": "from",
          "type": "address"
        },
        {
          "indexed": true,
          "internalType": "address",
          "name": "to",
          "type": "address"
        },
        {
          "indexed": false,
          "internalType": "uint256",
          "name": "value",
          "type": "uint256"
        }
      ],
      "name": "Transfer",
      "type": "event"
    },
    {
      "inputs": [
        {
          "internalType": "address",
          "name": "owner",
          "type": "address"
        },
        {
          "internalType": "address",
          "name": "spender",
          "type": "address"
        }
      ],
      "name": "allowance",
      "outputs": [
        {
          "internalType": "uint256",
          "name": "",
          "type": "uint256"
        }
      ],
      "stateMutability": "view",
      "type": "function"
    },
    {
      "inputs": [
        {
          "internalType": "address",
          "name": "spender",
          "type": "address"
        },
        {
          "internalType": "uint256",
          "name": "amount",
          "type": "uint256"
        }
      ],
      "name": "approve",
      "outputs": [
        {
          "internalType": "bool",
          "name": "",
          "type": "bool"
        }
      ],
      "stateMutability": "nonpayable",
      "type": "function"
    },
    {
      "inputs": [
        {
          "internalType": "address",
          "name": "account",
          "type": "address"
        }
      ],
      "name": "balanceOf",
      "outputs": [
        {
          "internalType": "uint256",
          "name": "",
          "type": "uint256"
        }
      ],
      "stateMutability": "view",
      "type": "function"
    },
    {
      "inputs": [],
      "name": "balanceUnderlying",
      "outputs": [
        {
          "internalType": "uint256",
          "name": "",
          "type": "uint256"
        }
      ],
      "stateMutability": "view",
      "type": "function"
    },
    {
      "inputs": [],
      "name": "compound",
      "outputs": [],
      "stateMutability": "nonpayable",
      "type": "function"
    },
    {
      "inputs": [],
      "name": "decimals",
      "outputs": [
        {
          "internalType": "uint8",
          "name": "",
          "type": "uint8"
        }
      ],
      "stateMutability": "view",
      "type": "function"
    },
    {
      "inputs": [
        {
          "internalType": "address",
          "name": "spender",
          "type": "address"
        },
        {
          "internalType": "uint256",
          "name": "subtractedValue",
          "type": "uint256"
        }
      ],
      "name": "decreaseAllowance",
      "outputs": [
        {
          "internalType": "bool",
          "name": "",
          "type": "bool"
        }
      ],
      "stateMutability": "nonpayable",
      "type": "function"
    },
    {
      "inputs": [
        {
          "internalType": "uint256",
          "name": "_underlyingAmount",
          "type": "uint256"
        }
      ],
      "name": "enter",
      "outputs": [],
      "stateMutability": "nonpayable",
      "type": "function"
    },
    {
      "inputs": [
        {
          "internalType": "address",
          "name": "spender",
          "type": "address"
        },
        {
          "internalType": "uint256",
          "name": "addedValue",
          "type": "uint256"
        }
      ],
      "name": "increaseAllowance",
      "outputs": [
        {
          "internalType": "bool",
          "name": "",
          "type": "bool"
        }
      ],
      "stateMutability": "nonpayable",
      "type": "function"
    },
    {
      "inputs": [
        {
          "internalType": "uint256",
          "name": "_shareAmount",
          "type": "uint256"
        }
      ],
      "name": "leave",
      "outputs": [],
      "stateMutability": "nonpayable",
      "type": "function"
    },
    {
      "inputs": [],
      "name": "name",
      "outputs": [
        {
          "internalType": "string",
          "name": "",
          "type": "string"
        }
      ],
      "stateMutability": "view",
      "type": "function"
    },
    {
      "inputs": [],
      "name": "revenueToken",
      "outputs": [
        {
          "internalType": "contract IERC20",
          "name": "",
          "type": "address"
        }
      ],
      "stateMutability": "view",
      "type": "function"
    },
    {
      "inputs": [],
      "name": "sharePrice",
      "outputs": [
        {
          "internalType": "uint256",
          "name": "",
          "type": "uint256"
        }
      ],
      "stateMutability": "view",
      "type": "function"
    },
    {
      "inputs": [],
      "name": "swapRouter",
      "outputs": [
        {
          "internalType": "contract ISwapRouter",
          "name": "",
          "type": "address"
        }
      ],
      "stateMutability": "view",
      "type": "function"
    },
    {
      "inputs": [],
      "name": "symbol",
      "outputs": [
        {
          "internalType": "string",
          "name": "",
          "type": "string"
        }
      ],
      "stateMutability": "view",
      "type": "function"
    },
    {
      "inputs": [],
      "name": "totalSupply",
      "outputs": [
        {
          "internalType": "uint256",
          "name": "",
          "type": "uint256"
        }
      ],
      "stateMutability": "view",
      "type": "function"
    },
    {
      "inputs": [
        {
          "internalType": "address",
          "name": "recipient",
          "type": "address"
        },
        {
          "internalType": "uint256",
          "name": "amount",
          "type": "uint256"
        }
      ],
      "name": "transfer",
      "outputs": [
        {
          "internalType": "bool",
          "name": "",
          "type": "bool"
        }
      ],
      "stateMutability": "nonpayable",
      "type": "function"
    },
    {
      "inputs": [
        {
          "internalType": "address",
          "name": "sender",
          "type": "address"
        },
        {
          "internalType": "address",
          "name": "recipient",
          "type": "address"
        },
        {
          "internalType": "uint256",
          "name": "amount",
          "type": "uint256"
        }
      ],
      "name": "transferFrom",
      "outputs": [
        {
          "internalType": "bool",
          "name": "",
          "type": "bool"
        }
      ],
      "stateMutability": "nonpayable",
      "type": "function"
    },
    {
      "inputs": [],
      "name": "underlying",
      "outputs": [
        {
          "internalType": "contract IERC20",
          "name": "",
          "type": "address"
        }
      ],
      "stateMutability": "view",
      "type": "function"
    }
  ],
  "bytecode": "0x60806040527fffffffffffffffffffffffffffffffffffffffffffffffffffffffffffffffff6006553480156200003557600080fd5b50604051620029ba380380620029ba83398181016040528101906200005b9190620002b5565b848383818181600390805190602001906200007892919062000165565b5080600490805190602001906200009192919062000165565b50505082600560006101000a81548173ffffffffffffffffffffffffffffffffffffffff021916908373ffffffffffffffffffffffffffffffffffffffff16021790555050505080600760006101000a81548173ffffffffffffffffffffffffffffffffffffffff021916908373ffffffffffffffffffffffffffffffffffffffff16021790555083600860006101000a81548173ffffffffffffffffffffffffffffffffffffffff021916908373ffffffffffffffffffffffffffffffffffffffff16021790555050505050506200052a565b828054620001739062000462565b90600052602060002090601f016020900481019282620001975760008555620001e3565b82601f10620001b257805160ff1916838001178555620001e3565b82800160010185558215620001e3579182015b82811115620001e2578251825591602001919060010190620001c5565b5b509050620001f29190620001f6565b5090565b5b8082111562000211576000816000905550600101620001f7565b5090565b60006200022c62000226846200039d565b62000369565b9050828152602081018484840111156200024557600080fd5b620002528482856200042c565b509392505050565b6000815190506200026b81620004f6565b92915050565b600081519050620002828162000510565b92915050565b600082601f8301126200029a57600080fd5b8151620002ac84826020860162000215565b91505092915050565b600080600080600060a08688031215620002ce57600080fd5b6000620002de888289016200025a565b9550506020620002f1888289016200025a565b945050604086015167ffffffffffffffff8111156200030f57600080fd5b6200031d8882890162000288565b935050606086015167ffffffffffffffff8111156200033b57600080fd5b620003498882890162000288565b92505060806200035c8882890162000271565b9150509295509295909350565b6000604051905081810181811067ffffffffffffffff82111715620003935762000392620004c7565b5b8060405250919050565b600067ffffffffffffffff821115620003bb57620003ba620004c7565b5b601f19601f8301169050602081019050919050565b6000620003dd826200040c565b9050919050565b6000620003f182620003d0565b9050919050565b60006200040582620003d0565b9050919050565b600073ffffffffffffffffffffffffffffffffffffffff82169050919050565b60005b838110156200044c5780820151818401526020810190506200042f565b838111156200045c576000848401525b50505050565b600060028204905060018216806200047b57607f821691505b6020821081141562000492576200049162000498565b5b50919050565b7f4e487b7100000000000000000000000000000000000000000000000000000000600052602260045260246000fd5b7f4e487b7100000000000000000000000000000000000000000000000000000000600052604160045260246000fd5b6200050181620003e4565b81146200050d57600080fd5b50565b6200051b81620003f8565b81146200052757600080fd5b50565b612480806200053a6000396000f3fe608060405234801561001057600080fd5b50600436106101215760003560e01c806370a08231116100ad578063a59f3e0c11610071578063a59f3e0c14610322578063a9059cbb1461033e578063c31c9c071461036e578063dd62ed3e1461038c578063f69e2046146103bc57610121565b806370a082311461026857806387269729146102985780638da876c9146102b657806395d89b41146102d4578063a457c2d7146102f257610121565b8063313ce567116100f4578063313ce567146101c257806339509351146101e0578063556e4e681461021057806367dfd4c91461022e5780636f307dc31461024a57610121565b806306fdde0314610126578063095ea7b31461014457806318160ddd1461017457806323b872dd14610192575b600080fd5b61012e6103c6565b60405161013b9190611f9c565b60405180910390f35b61015e60048036038101906101599190611987565b610458565b60405161016b9190611f4b565b60405180910390f35b61017c610476565b60405161018991906120fe565b60405180910390f35b6101ac60048036038101906101a79190611938565b610480565b6040516101b99190611f4b565b60405180910390f35b6101ca610581565b6040516101d79190612119565b60405180910390f35b6101fa60048036038101906101f59190611987565b61058a565b6040516102079190611f4b565b60405180910390f35b610218610636565b6040516102259190611f66565b60405180910390f35b610248600480360381019061024391906119ec565b61065c565b005b610252610729565b60405161025f9190611f66565b60405180910390f35b610282600480360381019061027d91906118d3565b61074f565b60405161028f91906120fe565b60405180910390f35b6102a0610797565b6040516102ad91906120fe565b60405180910390f35b6102be6107eb565b6040516102cb91906120fe565b60405180910390f35b6102dc61089d565b6040516102e99190611f9c565b60405180910390f35b61030c60048036038101906103079190611987565b61092f565b6040516103199190611f4b565b60405180910390f35b61033c600480360381019061033791906119ec565b610a23565b005b61035860048036038101906103539190611987565b610af2565b6040516103659190611f4b565b60405180910390f35b610376610b10565b6040516103839190611f81565b60405180910390f35b6103a660048036038101906103a191906118fc565b610b36565b6040516103b391906120fe565b60405180910390f35b6103c4610bbd565b005b6060600380546103d590612335565b80601f016020809104026020016040519081016040528092919081815260200182805461040190612335565b801561044e5780601f106104235761010080835404028352916020019161044e565b820191906000526020600020905b81548152906001019060200180831161043157829003601f168201915b5050505050905090565b600061046c610465610ecd565b8484610ed5565b6001905092915050565b6000600254905090565b600061048d8484846110a0565b6000600160008673ffffffffffffffffffffffffffffffffffffffff1673ffffffffffffffffffffffffffffffffffffffff16815260200190815260200160002060006104d8610ecd565b73ffffffffffffffffffffffffffffffffffffffff1673ffffffffffffffffffffffffffffffffffffffff16815260200190815260200160002054905082811015610558576040517f08c379a000000000000000000000000000000000000000000000000000000000815260040161054f9061203e565b60405180910390fd5b61057585610564610ecd565b85846105709190612231565b610ed5565b60019150509392505050565b60006012905090565b600061062c610597610ecd565b8484600160006105a5610ecd565b73ffffffffffffffffffffffffffffffffffffffff1673ffffffffffffffffffffffffffffffffffffffff16815260200190815260200160002060008873ffffffffffffffffffffffffffffffffffffffff1673ffffffffffffffffffffffffffffffffffffffff168152602001908152602001600020546106279190612150565b610ed5565b6001905092915050565b600860009054906101000a900473ffffffffffffffffffffffffffffffffffffffff1681565b61066461131f565b600560009054906101000a900473ffffffffffffffffffffffffffffffffffffffff1673ffffffffffffffffffffffffffffffffffffffff1663a9059cbb336106ac84611342565b6040518363ffffffff1660e01b81526004016106c9929190611f22565b602060405180830381600087803b1580156106e357600080fd5b505af11580156106f7573d6000803e3d6000fd5b505050506040513d601f19601f8201168201806040525081019061071b91906119c3565b506107263382611432565b50565b600560009054906101000a900473ffffffffffffffffffffffffffffffffffffffff1681565b60008060008373ffffffffffffffffffffffffffffffffffffffff1673ffffffffffffffffffffffffffffffffffffffff168152602001908152602001600020549050919050565b6000806107a2611606565b905060008114156107be57670de0b6b3a76400009150506107e8565b80670de0b6b3a76400006107d06107eb565b6107da91906121d7565b6107e491906121a6565b9150505b90565b6000600560009054906101000a900473ffffffffffffffffffffffffffffffffffffffff1673ffffffffffffffffffffffffffffffffffffffff166370a08231306040518263ffffffff1660e01b81526004016108489190611ea7565b60206040518083038186803b15801561086057600080fd5b505afa158015610874573d6000803e3d6000fd5b505050506040513d601f19601f820116820180604052508101906108989190611a15565b905090565b6060600480546108ac90612335565b80601f01602080910402602001604051908101604052809291908181526020018280546108d890612335565b80156109255780601f106108fa57610100808354040283529160200191610925565b820191906000526020600020905b81548152906001019060200180831161090857829003601f168201915b5050505050905090565b6000806001600061093e610ecd565b73ffffffffffffffffffffffffffffffffffffffff1673ffffffffffffffffffffffffffffffffffffffff16815260200190815260200160002060008573ffffffffffffffffffffffffffffffffffffffff1673ffffffffffffffffffffffffffffffffffffffff168152602001908152602001600020549050828110156109fb576040517f08c379a00000000000000000000000000000000000000000000000000000000081526004016109f2906120be565b60405180910390fd5b610a18610a06610ecd565b858584610a139190612231565b610ed5565b600191505092915050565b610a3533610a3083611627565b611716565b600560009054906101000a900473ffffffffffffffffffffffffffffffffffffffff1673ffffffffffffffffffffffffffffffffffffffff166323b872dd3330846040518463ffffffff1660e01b8152600401610a9493929190611eeb565b602060405180830381600087803b158015610aae57600080fd5b505af1158015610ac2573d6000803e3d6000fd5b505050506040513d601f19601f82011682018060405250810190610ae691906119c3565b50610aef61131f565b50565b6000610b06610aff610ecd565b84846110a0565b6001905092915050565b600760009054906101000a900473ffffffffffffffffffffffffffffffffffffffff1681565b6000600160008473ffffffffffffffffffffffffffffffffffffffff1673ffffffffffffffffffffffffffffffffffffffff16815260200190815260200160002060008373ffffffffffffffffffffffffffffffffffffffff1673ffffffffffffffffffffffffffffffffffffffff16815260200190815260200160002054905092915050565b6000600860009054906101000a900473ffffffffffffffffffffffffffffffffffffffff1673ffffffffffffffffffffffffffffffffffffffff166370a08231306040518263ffffffff1660e01b8152600401610c1a9190611ea7565b60206040518083038186803b158015610c3257600080fd5b505afa158015610c46573d6000803e3d6000fd5b505050506040513d601f19601f82011682018060405250810190610c6a9190611a15565b9050600654600860009054906101000a900473ffffffffffffffffffffffffffffffffffffffff1673ffffffffffffffffffffffffffffffffffffffff1663dd62ed3e30600760009054906101000a900473ffffffffffffffffffffffffffffffffffffffff166040518363ffffffff1660e01b8152600401610cee929190611ec2565b60206040518083038186803b158015610d0657600080fd5b505afa158015610d1a573d6000803e3d6000fd5b505050506040513d601f19601f82011682018060405250810190610d3e9190611a15565b1015610e1957600860009054906101000a900473ffffffffffffffffffffffffffffffffffffffff1673ffffffffffffffffffffffffffffffffffffffff1663095ea7b3600760009054906101000a900473ffffffffffffffffffffffffffffffffffffffff166006546040518363ffffffff1660e01b8152600401610dc5929190611f22565b602060405180830381600087803b158015610ddf57600080fd5b505af1158015610df3573d6000803e3d6000fd5b505050506040513d601f19601f82011682018060405250810190610e1791906119c3565b505b600760009054906101000a900473ffffffffffffffffffffffffffffffffffffffff1673ffffffffffffffffffffffffffffffffffffffff166318fc0f90600860009054906101000a900473ffffffffffffffffffffffffffffffffffffffff16836040518363ffffffff1660e01b8152600401610e98929190611f22565b600060405180830381600087803b158015610eb257600080fd5b505af1158015610ec6573d6000803e3d6000fd5b5050505050565b600033905090565b600073ffffffffffffffffffffffffffffffffffffffff168373ffffffffffffffffffffffffffffffffffffffff161415610f45576040517f08c379a0000000000000000000000000000000000000000000000000000000008152600401610f3c9061209e565b60405180910390fd5b600073ffffffffffffffffffffffffffffffffffffffff168273ffffffffffffffffffffffffffffffffffffffff161415610fb5576040517f08c379a0000000000000000000000000000000000000000000000000000000008152600401610fac90611ffe565b60405180910390fd5b80600160008573ffffffffffffffffffffffffffffffffffffffff1673ffffffffffffffffffffffffffffffffffffffff16815260200190815260200160002060008473ffffffffffffffffffffffffffffffffffffffff1673ffffffffffffffffffffffffffffffffffffffff168152602001908152602001600020819055508173ffffffffffffffffffffffffffffffffffffffff168373ffffffffffffffffffffffffffffffffffffffff167f8c5be1e5ebec7d5bd14f71427d1e84f3dd0314c0f7b2291e5b200ac8c7c3b9258360405161109391906120fe565b60405180910390a3505050565b600073ffffffffffffffffffffffffffffffffffffffff168373ffffffffffffffffffffffffffffffffffffffff161415611110576040517f08c379a00000000000000000000000000000000000000000000000000000000081526004016111079061207e565b60405180910390fd5b600073ffffffffffffffffffffffffffffffffffffffff168273ffffffffffffffffffffffffffffffffffffffff161415611180576040517f08c379a000000000000000000000000000000000000000000000000000000000815260040161117790611fbe565b60405180910390fd5b61118b83838361186a565b60008060008573ffffffffffffffffffffffffffffffffffffffff1673ffffffffffffffffffffffffffffffffffffffff16815260200190815260200160002054905081811015611211576040517f08c379a00000000000000000000000000000000000000000000000000000000081526004016112089061201e565b60405180910390fd5b818161121d9190612231565b6000808673ffffffffffffffffffffffffffffffffffffffff1673ffffffffffffffffffffffffffffffffffffffff16815260200190815260200160002081905550816000808573ffffffffffffffffffffffffffffffffffffffff1673ffffffffffffffffffffffffffffffffffffffff16815260200190815260200160002060008282546112ad9190612150565b925050819055508273ffffffffffffffffffffffffffffffffffffffff168473ffffffffffffffffffffffffffffffffffffffff167fddf252ad1be2c89b69c2b068fc378daa952ba7f163c4a11628f55a4df523b3ef8460405161131191906120fe565b60405180910390a350505050565b600061132961186f565b9050600081111561133f5761133e3082611432565b5b50565b60008061134d611606565b9050600081141561136257600091505061142d565b6000600560009054906101000a900473ffffffffffffffffffffffffffffffffffffffff1673ffffffffffffffffffffffffffffffffffffffff166370a08231306040518263ffffffff1660e01b81526004016113bf9190611ea7565b60206040518083038186803b1580156113d757600080fd5b505afa1580156113eb573d6000803e3d6000fd5b505050506040513d601f19601f8201168201806040525081019061140f9190611a15565b905081818561141e91906121d7565b61142891906121a6565b925050505b919050565b600073ffffffffffffffffffffffffffffffffffffffff168273ffffffffffffffffffffffffffffffffffffffff1614156114a2576040517f08c379a00000000000000000000000000000000000000000000000000000000081526004016114999061205e565b60405180910390fd5b6114ae8260008361186a565b60008060008473ffffffffffffffffffffffffffffffffffffffff1673ffffffffffffffffffffffffffffffffffffffff16815260200190815260200160002054905081811015611534576040517f08c379a000000000000000000000000000000000000000000000000000000000815260040161152b90611fde565b60405180910390fd5b81816115409190612231565b6000808573ffffffffffffffffffffffffffffffffffffffff1673ffffffffffffffffffffffffffffffffffffffff1681526020019081526020016000208190555081600260008282546115949190612231565b92505081905550600073ffffffffffffffffffffffffffffffffffffffff168373ffffffffffffffffffffffffffffffffffffffff167fddf252ad1be2c89b69c2b068fc378daa952ba7f163c4a11628f55a4df523b3ef846040516115f991906120fe565b60405180910390a3505050565b600061161061186f565b611618610476565b6116229190612231565b905090565b600080611632611606565b905060008114156116465782915050611711565b6000600560009054906101000a900473ffffffffffffffffffffffffffffffffffffffff1673ffffffffffffffffffffffffffffffffffffffff166370a08231306040518263ffffffff1660e01b81526004016116a39190611ea7565b60206040518083038186803b1580156116bb57600080fd5b505afa1580156116cf573d6000803e3d6000fd5b505050506040513d601f19601f820116820180604052508101906116f39190611a15565b905080828561170291906121d7565b61170c91906121a6565b925050505b919050565b600073ffffffffffffffffffffffffffffffffffffffff168273ffffffffffffffffffffffffffffffffffffffff161415611786576040517f08c379a000000000000000000000000000000000000000000000000000000000815260040161177d906120de565b60405180910390fd5b6117926000838361186a565b80600260008282546117a49190612150565b92505081905550806000808473ffffffffffffffffffffffffffffffffffffffff1673ffffffffffffffffffffffffffffffffffffffff16815260200190815260200160002060008282546117f99190612150565b925050819055508173ffffffffffffffffffffffffffffffffffffffff16600073ffffffffffffffffffffffffffffffffffffffff167fddf252ad1be2c89b69c2b068fc378daa952ba7f163c4a11628f55a4df523b3ef8360405161185e91906120fe565b60405180910390a35050565b505050565b600061187a3061074f565b905090565b60008135905061188e81612405565b92915050565b6000815190506118a38161241c565b92915050565b6000813590506118b881612433565b92915050565b6000815190506118cd81612433565b92915050565b6000602082840312156118e557600080fd5b60006118f38482850161187f565b91505092915050565b6000806040838503121561190f57600080fd5b600061191d8582860161187f565b925050602061192e8582860161187f565b9150509250929050565b60008060006060848603121561194d57600080fd5b600061195b8682870161187f565b935050602061196c8682870161187f565b925050604061197d868287016118a9565b9150509250925092565b6000806040838503121561199a57600080fd5b60006119a88582860161187f565b92505060206119b9858286016118a9565b9150509250929050565b6000602082840312156119d557600080fd5b60006119e384828501611894565b91505092915050565b6000602082840312156119fe57600080fd5b6000611a0c848285016118a9565b91505092915050565b600060208284031215611a2757600080fd5b6000611a35848285016118be565b91505092915050565b611a4781612265565b82525050565b611a5681612277565b82525050565b611a65816122ba565b82525050565b611a74816122de565b82525050565b6000611a8582612134565b611a8f818561213f565b9350611a9f818560208601612302565b611aa8816123f4565b840191505092915050565b6000611ac060238361213f565b91507f45524332303a207472616e7366657220746f20746865207a65726f206164647260008301527f65737300000000000000000000000000000000000000000000000000000000006020830152604082019050919050565b6000611b2660228361213f565b91507f45524332303a206275726e20616d6f756e7420657863656564732062616c616e60008301527f63650000000000000000000000000000000000000000000000000000000000006020830152604082019050919050565b6000611b8c60228361213f565b91507f45524332303a20617070726f766520746f20746865207a65726f20616464726560008301527f73730000000000000000000000000000000000000000000000000000000000006020830152604082019050919050565b6000611bf260268361213f565b91507f45524332303a207472616e7366657220616d6f756e742065786365656473206260008301527f616c616e636500000000000000000000000000000000000000000000000000006020830152604082019050919050565b6000611c5860288361213f565b91507f45524332303a207472616e7366657220616d6f756e742065786365656473206160008301527f6c6c6f77616e63650000000000000000000000000000000000000000000000006020830152604082019050919050565b6000611cbe60218361213f565b91507f45524332303a206275726e2066726f6d20746865207a65726f2061646472657360008301527f73000000000000000000000000000000000000000000000000000000000000006020830152604082019050919050565b6000611d2460258361213f565b91507f45524332303a207472616e736665722066726f6d20746865207a65726f20616460008301527f64726573730000000000000000000000000000000000000000000000000000006020830152604082019050919050565b6000611d8a60248361213f565b91507f45524332303a20617070726f76652066726f6d20746865207a65726f2061646460008301527f72657373000000000000000000000000000000000000000000000000000000006020830152604082019050919050565b6000611df060258361213f565b91507f45524332303a2064656372656173656420616c6c6f77616e63652062656c6f7760008301527f207a65726f0000000000000000000000000000000000000000000000000000006020830152604082019050919050565b6000611e56601f8361213f565b91507f45524332303a206d696e7420746f20746865207a65726f2061646472657373006000830152602082019050919050565b611e92816122a3565b82525050565b611ea1816122ad565b82525050565b6000602082019050611ebc6000830184611a3e565b92915050565b6000604082019050611ed76000830185611a3e565b611ee46020830184611a3e565b9392505050565b6000606082019050611f006000830186611a3e565b611f0d6020830185611a3e565b611f1a6040830184611e89565b949350505050565b6000604082019050611f376000830185611a3e565b611f446020830184611e89565b9392505050565b6000602082019050611f606000830184611a4d565b92915050565b6000602082019050611f7b6000830184611a5c565b92915050565b6000602082019050611f966000830184611a6b565b92915050565b60006020820190508181036000830152611fb68184611a7a565b905092915050565b60006020820190508181036000830152611fd781611ab3565b9050919050565b60006020820190508181036000830152611ff781611b19565b9050919050565b6000602082019050818103600083015261201781611b7f565b9050919050565b6000602082019050818103600083015261203781611be5565b9050919050565b6000602082019050818103600083015261205781611c4b565b9050919050565b6000602082019050818103600083015261207781611cb1565b9050919050565b6000602082019050818103600083015261209781611d17565b9050919050565b600060208201905081810360008301526120b781611d7d565b9050919050565b600060208201905081810360008301526120d781611de3565b9050919050565b600060208201905081810360008301526120f781611e49565b9050919050565b60006020820190506121136000830184611e89565b92915050565b600060208201905061212e6000830184611e98565b92915050565b600081519050919050565b600082825260208201905092915050565b600061215b826122a3565b9150612166836122a3565b9250827fffffffffffffffffffffffffffffffffffffffffffffffffffffffffffffffff0382111561219b5761219a612367565b5b828201905092915050565b60006121b1826122a3565b91506121bc836122a3565b9250826121cc576121cb612396565b5b828204905092915050565b60006121e2826122a3565b91506121ed836122a3565b9250817fffffffffffffffffffffffffffffffffffffffffffffffffffffffffffffffff048311821515161561222657612225612367565b5b828202905092915050565b600061223c826122a3565b9150612247836122a3565b92508282101561225a57612259612367565b5b828203905092915050565b600061227082612283565b9050919050565b60008115159050919050565b600073ffffffffffffffffffffffffffffffffffffffff82169050919050565b6000819050919050565b600060ff82169050919050565b60006122c5826122cc565b9050919050565b60006122d782612283565b9050919050565b60006122e9826122f0565b9050919050565b60006122fb82612283565b9050919050565b60005b83811015612320578082015181840152602081019050612305565b8381111561232f576000848401525b50505050565b6000600282049050600182168061234d57607f821691505b60208210811415612361576123606123c5565b5b50919050565b7f4e487b7100000000000000000000000000000000000000000000000000000000600052601160045260246000fd5b7f4e487b7100000000000000000000000000000000000000000000000000000000600052601260045260246000fd5b7f4e487b7100000000000000000000000000000000000000000000000000000000600052602260045260246000fd5b6000601f19601f8301169050919050565b61240e81612265565b811461241957600080fd5b50565b61242581612277565b811461243057600080fd5b50565b61243c816122a3565b811461244757600080fd5b5056fea26469706673582212208403396610e9448f9217c2108dcf6b34e0aad53194632200fa33c1f5a9c6104664736f6c63430008000033",
  "linkReferences": {},
  "deployedLinkReferences": {}
}